{
  "_format": "hh-sol-artifact-1",
  "contractName": "MarketPlace",
  "sourceName": "contracts/MarketPlace.sol",
  "abi": [
    {
      "inputs": [
        {
          "internalType": "string",
          "name": "_name",
          "type": "string"
        },
        {
          "internalType": "string",
          "name": "_description",
          "type": "string"
        }
      ],
      "stateMutability": "nonpayable",
      "type": "constructor"
    },
    {
      "inputs": [
        {
          "internalType": "address",
          "name": "sender",
          "type": "address"
        },
        {
          "internalType": "uint256",
          "name": "tokenId",
          "type": "uint256"
        },
        {
          "internalType": "address",
          "name": "owner",
          "type": "address"
        }
      ],
      "name": "ERC721IncorrectOwner",
      "type": "error"
    },
    {
      "inputs": [
        {
          "internalType": "address",
          "name": "operator",
          "type": "address"
        },
        {
          "internalType": "uint256",
          "name": "tokenId",
          "type": "uint256"
        }
      ],
      "name": "ERC721InsufficientApproval",
      "type": "error"
    },
    {
      "inputs": [
        {
          "internalType": "address",
          "name": "approver",
          "type": "address"
        }
      ],
      "name": "ERC721InvalidApprover",
      "type": "error"
    },
    {
      "inputs": [
        {
          "internalType": "address",
          "name": "operator",
          "type": "address"
        }
      ],
      "name": "ERC721InvalidOperator",
      "type": "error"
    },
    {
      "inputs": [
        {
          "internalType": "address",
          "name": "owner",
          "type": "address"
        }
      ],
      "name": "ERC721InvalidOwner",
      "type": "error"
    },
    {
      "inputs": [
        {
          "internalType": "address",
          "name": "receiver",
          "type": "address"
        }
      ],
      "name": "ERC721InvalidReceiver",
      "type": "error"
    },
    {
      "inputs": [
        {
          "internalType": "address",
          "name": "sender",
          "type": "address"
        }
      ],
      "name": "ERC721InvalidSender",
      "type": "error"
    },
    {
      "inputs": [
        {
          "internalType": "uint256",
          "name": "tokenId",
          "type": "uint256"
        }
      ],
      "name": "ERC721NonexistentToken",
      "type": "error"
    },
    {
      "inputs": [
        {
          "internalType": "address",
          "name": "owner",
          "type": "address"
        }
      ],
      "name": "OwnableInvalidOwner",
      "type": "error"
    },
    {
      "inputs": [
        {
          "internalType": "address",
          "name": "account",
          "type": "address"
        }
      ],
      "name": "OwnableUnauthorizedAccount",
      "type": "error"
    },
    {
      "anonymous": false,
      "inputs": [
        {
          "indexed": true,
          "internalType": "address",
          "name": "owner",
          "type": "address"
        },
        {
          "indexed": true,
          "internalType": "address",
          "name": "approved",
          "type": "address"
        },
        {
          "indexed": true,
          "internalType": "uint256",
          "name": "tokenId",
          "type": "uint256"
        }
      ],
      "name": "Approval",
      "type": "event"
    },
    {
      "anonymous": false,
      "inputs": [
        {
          "indexed": true,
          "internalType": "address",
          "name": "owner",
          "type": "address"
        },
        {
          "indexed": true,
          "internalType": "address",
          "name": "operator",
          "type": "address"
        },
        {
          "indexed": false,
          "internalType": "bool",
          "name": "approved",
          "type": "bool"
        }
      ],
      "name": "ApprovalForAll",
      "type": "event"
    },
    {
      "anonymous": false,
      "inputs": [
        {
          "indexed": false,
          "internalType": "uint256",
          "name": "_fromTokenId",
          "type": "uint256"
        },
        {
          "indexed": false,
          "internalType": "uint256",
          "name": "_toTokenId",
          "type": "uint256"
        }
      ],
      "name": "BatchMetadataUpdate",
      "type": "event"
    },
    {
      "anonymous": false,
      "inputs": [
        {
          "indexed": false,
          "internalType": "uint256",
          "name": "_tokenId",
          "type": "uint256"
        }
      ],
      "name": "MetadataUpdate",
      "type": "event"
    },
    {
      "anonymous": false,
      "inputs": [
        {
          "indexed": true,
          "internalType": "address",
          "name": "previousOwner",
          "type": "address"
        },
        {
          "indexed": true,
          "internalType": "address",
          "name": "newOwner",
          "type": "address"
        }
      ],
      "name": "OwnershipTransferred",
      "type": "event"
    },
    {
      "anonymous": false,
      "inputs": [
        {
          "indexed": true,
          "internalType": "address",
          "name": "from",
          "type": "address"
        },
        {
          "indexed": true,
          "internalType": "address",
          "name": "to",
          "type": "address"
        },
        {
          "indexed": true,
          "internalType": "uint256",
          "name": "tokenId",
          "type": "uint256"
        }
      ],
      "name": "Transfer",
      "type": "event"
    },
    {
      "inputs": [
        {
          "internalType": "string",
          "name": "_name",
          "type": "string"
        },
        {
          "internalType": "string",
          "name": "_description",
          "type": "string"
        },
        {
          "internalType": "uint256",
          "name": "_price",
          "type": "uint256"
        },
        {
          "internalType": "uint256",
          "name": "_quantity",
          "type": "uint256"
        },
        {
          "internalType": "string",
          "name": "_ipfsLink",
          "type": "string"
        }
      ],
      "name": "addProduct",
      "outputs": [],
      "stateMutability": "nonpayable",
      "type": "function"
    },
    {
      "inputs": [
        {
          "internalType": "address",
          "name": "to",
          "type": "address"
        },
        {
          "internalType": "uint256",
          "name": "tokenId",
          "type": "uint256"
        }
      ],
      "name": "approve",
      "outputs": [],
      "stateMutability": "nonpayable",
      "type": "function"
    },
    {
      "inputs": [
        {
          "internalType": "address",
          "name": "owner",
          "type": "address"
        }
      ],
      "name": "balanceOf",
      "outputs": [
        {
          "internalType": "uint256",
          "name": "",
          "type": "uint256"
        }
      ],
      "stateMutability": "view",
      "type": "function"
    },
    {
      "inputs": [
        {
          "internalType": "uint256",
          "name": "_id",
          "type": "uint256"
        }
      ],
      "name": "buyProduct",
      "outputs": [],
      "stateMutability": "payable",
      "type": "function"
    },
    {
      "inputs": [
        {
          "internalType": "uint256",
          "name": "_id",
          "type": "uint256"
        }
      ],
      "name": "deleteProduct",
      "outputs": [],
      "stateMutability": "nonpayable",
      "type": "function"
    },
    {
      "inputs": [
        {
          "internalType": "uint256",
          "name": "_id",
          "type": "uint256"
        },
        {
          "internalType": "string",
          "name": "_name",
          "type": "string"
        },
        {
          "internalType": "string",
          "name": "_description",
          "type": "string"
        },
        {
          "internalType": "uint256",
          "name": "_price",
          "type": "uint256"
        },
        {
          "internalType": "uint256",
          "name": "_quantity",
          "type": "uint256"
        },
        {
          "internalType": "string",
          "name": "_ipfsLink",
          "type": "string"
        }
      ],
      "name": "editProduct",
      "outputs": [],
      "stateMutability": "nonpayable",
      "type": "function"
    },
    {
      "inputs": [
        {
          "internalType": "uint256",
          "name": "tokenId",
          "type": "uint256"
        }
      ],
      "name": "getApproved",
      "outputs": [
        {
          "internalType": "address",
          "name": "",
          "type": "address"
        }
      ],
      "stateMutability": "view",
      "type": "function"
    },
    {
      "inputs": [
        {
          "internalType": "uint256",
          "name": "_id",
          "type": "uint256"
        }
      ],
      "name": "getProduct",
      "outputs": [
        {
          "components": [
            {
              "internalType": "string",
              "name": "name",
              "type": "string"
            },
            {
              "internalType": "string",
              "name": "description",
              "type": "string"
            },
            {
              "internalType": "uint256",
              "name": "price",
              "type": "uint256"
            },
            {
              "internalType": "uint256",
              "name": "quantity",
              "type": "uint256"
            },
            {
              "internalType": "string",
              "name": "ipfsLink",
              "type": "string"
            },
            {
              "internalType": "uint256",
              "name": "sold",
              "type": "uint256"
            }
          ],
          "internalType": "struct MarketPlace.Product",
          "name": "",
          "type": "tuple"
        }
      ],
      "stateMutability": "view",
      "type": "function"
    },
    {
      "inputs": [],
      "name": "getProducts",
      "outputs": [
        {
          "components": [
            {
              "internalType": "string",
              "name": "name",
              "type": "string"
            },
            {
              "internalType": "string",
              "name": "description",
              "type": "string"
            },
            {
              "internalType": "uint256",
              "name": "price",
              "type": "uint256"
            },
            {
              "internalType": "uint256",
              "name": "quantity",
              "type": "uint256"
            },
            {
              "internalType": "string",
              "name": "ipfsLink",
              "type": "string"
            },
            {
              "internalType": "uint256",
              "name": "sold",
              "type": "uint256"
            }
          ],
          "internalType": "struct MarketPlace.Product[]",
          "name": "",
          "type": "tuple[]"
        }
      ],
      "stateMutability": "view",
      "type": "function"
    },
    {
      "inputs": [
        {
          "internalType": "address",
          "name": "owner",
          "type": "address"
        },
        {
          "internalType": "address",
          "name": "operator",
          "type": "address"
        }
      ],
      "name": "isApprovedForAll",
      "outputs": [
        {
          "internalType": "bool",
          "name": "",
          "type": "bool"
        }
      ],
      "stateMutability": "view",
      "type": "function"
    },
    {
      "inputs": [],
      "name": "marketPlaceDescription",
      "outputs": [
        {
          "internalType": "string",
          "name": "",
          "type": "string"
        }
      ],
      "stateMutability": "view",
      "type": "function"
    },
    {
      "inputs": [],
      "name": "marketPlaceName",
      "outputs": [
        {
          "internalType": "string",
          "name": "",
          "type": "string"
        }
      ],
      "stateMutability": "view",
      "type": "function"
    },
    {
      "inputs": [],
      "name": "name",
      "outputs": [
        {
          "internalType": "string",
          "name": "",
          "type": "string"
        }
      ],
      "stateMutability": "view",
      "type": "function"
    },
    {
      "inputs": [],
      "name": "owner",
      "outputs": [
        {
          "internalType": "address",
          "name": "",
          "type": "address"
        }
      ],
      "stateMutability": "view",
      "type": "function"
    },
    {
      "inputs": [
        {
          "internalType": "uint256",
          "name": "tokenId",
          "type": "uint256"
        }
      ],
      "name": "ownerOf",
      "outputs": [
        {
          "internalType": "address",
          "name": "",
          "type": "address"
        }
      ],
      "stateMutability": "view",
      "type": "function"
    },
    {
      "inputs": [],
      "name": "renounceOwnership",
      "outputs": [],
      "stateMutability": "nonpayable",
      "type": "function"
    },
    {
      "inputs": [
        {
          "internalType": "address",
          "name": "from",
          "type": "address"
        },
        {
          "internalType": "address",
          "name": "to",
          "type": "address"
        },
        {
          "internalType": "uint256",
          "name": "tokenId",
          "type": "uint256"
        }
      ],
      "name": "safeTransferFrom",
      "outputs": [],
      "stateMutability": "nonpayable",
      "type": "function"
    },
    {
      "inputs": [
        {
          "internalType": "address",
          "name": "from",
          "type": "address"
        },
        {
          "internalType": "address",
          "name": "to",
          "type": "address"
        },
        {
          "internalType": "uint256",
          "name": "tokenId",
          "type": "uint256"
        },
        {
          "internalType": "bytes",
          "name": "data",
          "type": "bytes"
        }
      ],
      "name": "safeTransferFrom",
      "outputs": [],
      "stateMutability": "nonpayable",
      "type": "function"
    },
    {
      "inputs": [
        {
          "internalType": "address",
          "name": "operator",
          "type": "address"
        },
        {
          "internalType": "bool",
          "name": "approved",
          "type": "bool"
        }
      ],
      "name": "setApprovalForAll",
      "outputs": [],
      "stateMutability": "nonpayable",
      "type": "function"
    },
    {
      "inputs": [
        {
          "internalType": "bytes4",
          "name": "interfaceId",
          "type": "bytes4"
        }
      ],
      "name": "supportsInterface",
      "outputs": [
        {
          "internalType": "bool",
          "name": "",
          "type": "bool"
        }
      ],
      "stateMutability": "view",
      "type": "function"
    },
    {
      "inputs": [],
      "name": "symbol",
      "outputs": [
        {
          "internalType": "string",
          "name": "",
          "type": "string"
        }
      ],
      "stateMutability": "view",
      "type": "function"
    },
    {
      "inputs": [
        {
          "internalType": "uint256",
          "name": "tokenId",
          "type": "uint256"
        }
      ],
      "name": "tokenURI",
      "outputs": [
        {
          "internalType": "string",
          "name": "",
          "type": "string"
        }
      ],
      "stateMutability": "view",
      "type": "function"
    },
    {
      "inputs": [
        {
          "internalType": "address",
          "name": "from",
          "type": "address"
        },
        {
          "internalType": "address",
          "name": "to",
          "type": "address"
        },
        {
          "internalType": "uint256",
          "name": "tokenId",
          "type": "uint256"
        }
      ],
      "name": "transferFrom",
      "outputs": [],
      "stateMutability": "nonpayable",
      "type": "function"
    },
    {
      "inputs": [
        {
          "internalType": "address",
          "name": "newOwner",
          "type": "address"
        }
      ],
      "name": "transferOwnership",
      "outputs": [],
      "stateMutability": "nonpayable",
      "type": "function"
    }
  ],
  "bytecode": "0x60806040526000600b553480156200001657600080fd5b50604051620048c1380380620048c183398181016040528101906200003c9190620003d9565b6040518060400160405280600981526020017f4172656f6e4d41525400000000000000000000000000000000000000000000008152506040518060400160405280600581526020017f414d41525400000000000000000000000000000000000000000000000000000081525033600073ffffffffffffffffffffffffffffffffffffffff168173ffffffffffffffffffffffffffffffffffffffff16036200011e5760006040517f1e4fbdf7000000000000000000000000000000000000000000000000000000008152600401620001159190620004a3565b60405180910390fd5b6200012f816200018260201b60201c565b5081600190816200014191906200070b565b5080600290816200015391906200070b565b50505081600990816200016791906200070b565b5080600a90816200017991906200070b565b505050620007f2565b60008060009054906101000a900473ffffffffffffffffffffffffffffffffffffffff169050816000806101000a81548173ffffffffffffffffffffffffffffffffffffffff021916908373ffffffffffffffffffffffffffffffffffffffff1602179055508173ffffffffffffffffffffffffffffffffffffffff168173ffffffffffffffffffffffffffffffffffffffff167f8be0079c531659141344cd1fd0a4f28419497f9722a3daafe3b4186f6b6457e060405160405180910390a35050565b6000604051905090565b600080fd5b600080fd5b600080fd5b600080fd5b6000601f19601f8301169050919050565b7f4e487b7100000000000000000000000000000000000000000000000000000000600052604160045260246000fd5b620002af8262000264565b810181811067ffffffffffffffff82111715620002d157620002d062000275565b5b80604052505050565b6000620002e662000246565b9050620002f48282620002a4565b919050565b600067ffffffffffffffff82111562000317576200031662000275565b5b620003228262000264565b9050602081019050919050565b60005b838110156200034f57808201518184015260208101905062000332565b60008484015250505050565b6000620003726200036c84620002f9565b620002da565b9050828152602081018484840111156200039157620003906200025f565b5b6200039e8482856200032f565b509392505050565b600082601f830112620003be57620003bd6200025a565b5b8151620003d08482602086016200035b565b91505092915050565b60008060408385031215620003f357620003f262000250565b5b600083015167ffffffffffffffff81111562000414576200041362000255565b5b6200042285828601620003a6565b925050602083015167ffffffffffffffff81111562000446576200044562000255565b5b6200045485828601620003a6565b9150509250929050565b600073ffffffffffffffffffffffffffffffffffffffff82169050919050565b60006200048b826200045e565b9050919050565b6200049d816200047e565b82525050565b6000602082019050620004ba600083018462000492565b92915050565b600081519050919050565b7f4e487b7100000000000000000000000000000000000000000000000000000000600052602260045260246000fd5b600060028204905060018216806200051357607f821691505b602082108103620005295762000528620004cb565b5b50919050565b60008190508160005260206000209050919050565b60006020601f8301049050919050565b600082821b905092915050565b600060088302620005937fffffffffffffffffffffffffffffffffffffffffffffffffffffffffffffffff8262000554565b6200059f868362000554565b95508019841693508086168417925050509392505050565b6000819050919050565b6000819050919050565b6000620005ec620005e6620005e084620005b7565b620005c1565b620005b7565b9050919050565b6000819050919050565b6200060883620005cb565b620006206200061782620005f3565b84845462000561565b825550505050565b600090565b6200063762000628565b62000644818484620005fd565b505050565b5b818110156200066c57620006606000826200062d565b6001810190506200064a565b5050565b601f821115620006bb5762000685816200052f565b620006908462000544565b81016020851015620006a0578190505b620006b8620006af8562000544565b83018262000649565b50505b505050565b600082821c905092915050565b6000620006e060001984600802620006c0565b1980831691505092915050565b6000620006fb8383620006cd565b9150826002028217905092915050565b6200071682620004c0565b67ffffffffffffffff81111562000732576200073162000275565b5b6200073e8254620004fa565b6200074b82828562000670565b600060209050601f8311600181146200078357600084156200076e578287015190505b6200077a8582620006ed565b865550620007ea565b601f19841662000793866200052f565b60005b82811015620007bd5784890151825560018201915060208501945060208101905062000796565b86831015620007dd5784890151620007d9601f891682620006cd565b8355505b6001600288020188555050505b505050505050565b6140bf80620008026000396000f3fe60806040526004361061014b5760003560e01c80638ef291e9116100b6578063c87b56dd1161006f578063c87b56dd14610481578063dbae7ba3146104be578063e985e9c5146104e9578063ed90c7b714610526578063f18f8b6d1461054f578063f2fde38b146105785761014b565b80638ef291e91461037157806395d89b411461039c578063a22cb465146103c7578063b88d4fde146103f0578063b9db15b414610419578063c29b2f20146104565761014b565b80636352211e116101085780636352211e146102705780636daf0fbb146102ad57806370a08231146102d6578063715018a6146103135780638642269e1461032a5780638da5cb5b146103465761014b565b806301ffc9a71461015057806306fdde031461018d578063081812fc146101b8578063095ea7b3146101f557806323b872dd1461021e57806342842e0e14610247575b600080fd5b34801561015c57600080fd5b5061017760048036038101906101729190612b99565b6105a1565b6040516101849190612be1565b60405180910390f35b34801561019957600080fd5b506101a2610602565b6040516101af9190612c8c565b60405180910390f35b3480156101c457600080fd5b506101df60048036038101906101da9190612ce4565b610694565b6040516101ec9190612d52565b60405180910390f35b34801561020157600080fd5b5061021c60048036038101906102179190612d99565b6106b0565b005b34801561022a57600080fd5b5061024560048036038101906102409190612dd9565b6106c6565b005b34801561025357600080fd5b5061026e60048036038101906102699190612dd9565b6107c8565b005b34801561027c57600080fd5b5061029760048036038101906102929190612ce4565b6107e8565b6040516102a49190612d52565b60405180910390f35b3480156102b957600080fd5b506102d460048036038101906102cf9190612f61565b6107fa565b005b3480156102e257600080fd5b506102fd60048036038101906102f89190613030565b610a16565b60405161030a919061306c565b60405180910390f35b34801561031f57600080fd5b50610328610ad0565b005b610344600480360381019061033f9190612ce4565b610ae4565b005b34801561035257600080fd5b5061035b610d6f565b6040516103689190612d52565b60405180910390f35b34801561037d57600080fd5b50610386610d98565b6040516103939190612c8c565b60405180910390f35b3480156103a857600080fd5b506103b1610e26565b6040516103be9190612c8c565b60405180910390f35b3480156103d357600080fd5b506103ee60048036038101906103e991906130b3565b610eb8565b005b3480156103fc57600080fd5b5061041760048036038101906104129190613194565b610ece565b005b34801561042557600080fd5b50610440600480360381019061043b9190612ce4565b610eeb565b60405161044d9190613307565b60405180910390f35b34801561046257600080fd5b5061046b61114f565b6040516104789190613482565b60405180910390f35b34801561048d57600080fd5b506104a860048036038101906104a39190612ce4565b611382565b6040516104b59190612c8c565b60405180910390f35b3480156104ca57600080fd5b506104d3611495565b6040516104e09190612c8c565b60405180910390f35b3480156104f557600080fd5b50610510600480360381019061050b91906134a4565b611523565b60405161051d9190612be1565b60405180910390f35b34801561053257600080fd5b5061054d60048036038101906105489190612ce4565b6115b7565b005b34801561055b57600080fd5b50610576600480360381019061057191906134e4565b61173e565b005b34801561058457600080fd5b5061059f600480360381019061059a9190613030565b6119e1565b005b6000634906490660e01b7bffffffffffffffffffffffffffffffffffffffffffffffffffffffff1916827bffffffffffffffffffffffffffffffffffffffffffffffffffffffff191614806105fb57506105fa82611a67565b5b9050919050565b606060018054610611906135f4565b80601f016020809104026020016040519081016040528092919081815260200182805461063d906135f4565b801561068a5780601f1061065f5761010080835404028352916020019161068a565b820191906000526020600020905b81548152906001019060200180831161066d57829003601f168201915b5050505050905090565b600061069f82611b49565b506106a982611bd1565b9050919050565b6106c282826106bd611c0e565b611c16565b5050565b600073ffffffffffffffffffffffffffffffffffffffff168273ffffffffffffffffffffffffffffffffffffffff16036107385760006040517f64a0ae9200000000000000000000000000000000000000000000000000000000815260040161072f9190612d52565b60405180910390fd5b600061074c8383610747611c0e565b611c28565b90508373ffffffffffffffffffffffffffffffffffffffff168173ffffffffffffffffffffffffffffffffffffffff16146107c2578382826040517f64283d7b0000000000000000000000000000000000000000000000000000000081526004016107b993929190613625565b60405180910390fd5b50505050565b6107e383838360405180602001604052806000815250610ece565b505050565b60006107f382611b49565b9050919050565b610802611e42565b6000855111610846576040517f08c379a000000000000000000000000000000000000000000000000000000000815260040161083d906136a8565b60405180910390fd5b60008311610889576040517f08c379a000000000000000000000000000000000000000000000000000000000815260040161088090613714565b60405180910390fd5b60008451116108cd576040517f08c379a00000000000000000000000000000000000000000000000000000000081526004016108c490613780565b60405180910390fd5b60008211610910576040517f08c379a0000000000000000000000000000000000000000000000000000000008152600401610907906137ec565b60405180910390fd5b6000815111610954576040517f08c379a000000000000000000000000000000000000000000000000000000000815260040161094b90613858565b60405180910390fd5b60086040518060c001604052808781526020018681526020018581526020018481526020018381526020016000815250908060018154018082558091505060019003906000526020600020906006020160009091909190915060008201518160000190816109c29190613a24565b5060208201518160010190816109d89190613a24565b5060408201518160020155606082015181600301556080820151816004019081610a029190613a24565b5060a0820151816005015550505050505050565b60008073ffffffffffffffffffffffffffffffffffffffff168273ffffffffffffffffffffffffffffffffffffffff1603610a895760006040517f89c62b64000000000000000000000000000000000000000000000000000000008152600401610a809190612d52565b60405180910390fd5b600460008373ffffffffffffffffffffffffffffffffffffffff1673ffffffffffffffffffffffffffffffffffffffff168152602001908152602001600020549050919050565b610ad8611e42565b610ae26000611ec9565b565b60008110158015610af9575060088054905081105b610b38576040517f08c379a0000000000000000000000000000000000000000000000000000000008152600401610b2f90613b42565b60405180910390fd5b600060088281548110610b4e57610b4d613b62565b5b90600052602060002090600602016003015411610ba0576040517f08c379a0000000000000000000000000000000000000000000000000000000008152600401610b9790613bdd565b60405180910390fd5b60088181548110610bb457610bb3613b62565b5b906000526020600020906006020160020154341015610c08576040517f08c379a0000000000000000000000000000000000000000000000000000000008152600401610bff90613c49565b60405180910390fd5b610c10610d6f565b73ffffffffffffffffffffffffffffffffffffffff166108fc349081150290604051600060405180830381858888f19350505050158015610c55573d6000803e3d6000fd5b50600160088281548110610c6c57610c6b613b62565b5b90600052602060002090600602016005016000828254610c8c9190613c98565b92505081905550600160088281548110610ca957610ca8613b62565b5b90600052602060002090600602016003016000828254610cc99190613ccc565b925050819055506001600b54610cdf9190613c98565b600b81905550610cf133600b54611f8d565b610d6c600b546009600a60088581548110610d0f57610d0e613b62565b5b906000526020600020906006020160000160088681548110610d3457610d33613b62565b5b9060005260206000209060060201600101604051602001610d589493929190613d8e565b604051602081830303815290604052612086565b50565b60008060009054906101000a900473ffffffffffffffffffffffffffffffffffffffff16905090565b60098054610da5906135f4565b80601f0160208091040260200160405190810160405280929190818152602001828054610dd1906135f4565b8015610e1e5780601f10610df357610100808354040283529160200191610e1e565b820191906000526020600020905b815481529060010190602001808311610e0157829003601f168201915b505050505081565b606060028054610e35906135f4565b80601f0160208091040260200160405190810160405280929190818152602001828054610e61906135f4565b8015610eae5780601f10610e8357610100808354040283529160200191610eae565b820191906000526020600020905b815481529060010190602001808311610e9157829003601f168201915b5050505050905090565b610eca610ec3611c0e565b83836120e2565b5050565b610ed98484846106c6565b610ee584848484612251565b50505050565b610ef3612a9a565b60008210158015610f08575060088054905082105b610f47576040517f08c379a0000000000000000000000000000000000000000000000000000000008152600401610f3e90613b42565b60405180910390fd5b60088281548110610f5b57610f5a613b62565b5b90600052602060002090600602016040518060c0016040529081600082018054610f84906135f4565b80601f0160208091040260200160405190810160405280929190818152602001828054610fb0906135f4565b8015610ffd5780601f10610fd257610100808354040283529160200191610ffd565b820191906000526020600020905b815481529060010190602001808311610fe057829003601f168201915b50505050508152602001600182018054611016906135f4565b80601f0160208091040260200160405190810160405280929190818152602001828054611042906135f4565b801561108f5780601f106110645761010080835404028352916020019161108f565b820191906000526020600020905b81548152906001019060200180831161107257829003601f168201915b5050505050815260200160028201548152602001600382015481526020016004820180546110bc906135f4565b80601f01602080910402602001604051908101604052809291908181526020018280546110e8906135f4565b80156111355780601f1061110a57610100808354040283529160200191611135565b820191906000526020600020905b81548152906001019060200180831161111857829003601f168201915b505050505081526020016005820154815250509050919050565b60606008805480602002602001604051908101604052809291908181526020016000905b8282101561137957838290600052602060002090600602016040518060c00160405290816000820180546111a6906135f4565b80601f01602080910402602001604051908101604052809291908181526020018280546111d2906135f4565b801561121f5780601f106111f45761010080835404028352916020019161121f565b820191906000526020600020905b81548152906001019060200180831161120257829003601f168201915b50505050508152602001600182018054611238906135f4565b80601f0160208091040260200160405190810160405280929190818152602001828054611264906135f4565b80156112b15780601f10611286576101008083540402835291602001916112b1565b820191906000526020600020905b81548152906001019060200180831161129457829003601f168201915b5050505050815260200160028201548152602001600382015481526020016004820180546112de906135f4565b80601f016020809104026020016040519081016040528092919081815260200182805461130a906135f4565b80156113575780601f1061132c57610100808354040283529160200191611357565b820191906000526020600020905b81548152906001019060200180831161133a57829003601f168201915b5050505050815260200160058201548152505081526020019060010190611173565b50505050905090565b606061138d82611b49565b5060006007600084815260200190815260200160002080546113ae906135f4565b80601f01602080910402602001604051908101604052809291908181526020018280546113da906135f4565b80156114275780601f106113fc57610100808354040283529160200191611427565b820191906000526020600020905b81548152906001019060200180831161140a57829003601f168201915b505050505090506000611438612408565b9050600081510361144d578192505050611490565b60008251111561148257808260405160200161146a929190613dfd565b60405160208183030381529060405292505050611490565b61148b8461241f565b925050505b919050565b600a80546114a2906135f4565b80601f01602080910402602001604051908101604052809291908181526020018280546114ce906135f4565b801561151b5780601f106114f05761010080835404028352916020019161151b565b820191906000526020600020905b8154815290600101906020018083116114fe57829003601f168201915b505050505081565b6000600660008473ffffffffffffffffffffffffffffffffffffffff1673ffffffffffffffffffffffffffffffffffffffff16815260200190815260200160002060008373ffffffffffffffffffffffffffffffffffffffff1673ffffffffffffffffffffffffffffffffffffffff16815260200190815260200160002060009054906101000a900460ff16905092915050565b6115bf611e42565b600081101580156115d4575060088054905081105b611613576040517f08c379a000000000000000000000000000000000000000000000000000000000815260040161160a90613b42565b60405180910390fd5b600860016008805490506116279190613ccc565b8154811061163857611637613b62565b5b90600052602060002090600602016008828154811061165a57611659613b62565b5b90600052602060002090600602016000820181600001908161167c9190613e37565b50600182018160010190816116919190613e37565b506002820154816002015560038201548160030155600482018160040190816116ba9190613e37565b506005820154816005015590505060088054806116da576116d9613f1f565b5b6001900381819060005260206000209060060201600080820160006116ff9190612ad0565b60018201600061170f9190612ad0565b6002820160009055600382016000905560048201600061172f9190612ad0565b60058201600090555050905550565b611746611e42565b6000861015801561175b575060088054905086105b61179a576040517f08c379a000000000000000000000000000000000000000000000000000000000815260040161179190613b42565b60405180910390fd5b60008551116117de576040517f08c379a00000000000000000000000000000000000000000000000000000000081526004016117d5906136a8565b60405180910390fd5b6000845111611822576040517f08c379a000000000000000000000000000000000000000000000000000000000815260040161181990613780565b60405180910390fd5b60008311611865576040517f08c379a000000000000000000000000000000000000000000000000000000000815260040161185c90613714565b60405180910390fd5b600082116118a8576040517f08c379a000000000000000000000000000000000000000000000000000000000815260040161189f906137ec565b60405180910390fd5b60008151116118ec576040517f08c379a00000000000000000000000000000000000000000000000000000000081526004016118e390613858565b60405180910390fd5b846008878154811061190157611900613b62565b5b9060005260206000209060060201600001908161191e9190613a24565b50826008878154811061193457611933613b62565b5b906000526020600020906006020160020181905550836008878154811061195e5761195d613b62565b5b9060005260206000209060060201600101908161197b9190613a24565b50816008878154811061199157611990613b62565b5b90600052602060002090600602016003018190555080600887815481106119bb576119ba613b62565b5b906000526020600020906006020160040190816119d89190613a24565b50505050505050565b6119e9611e42565b600073ffffffffffffffffffffffffffffffffffffffff168173ffffffffffffffffffffffffffffffffffffffff1603611a5b5760006040517f1e4fbdf7000000000000000000000000000000000000000000000000000000008152600401611a529190612d52565b60405180910390fd5b611a6481611ec9565b50565b60007f80ac58cd000000000000000000000000000000000000000000000000000000007bffffffffffffffffffffffffffffffffffffffffffffffffffffffff1916827bffffffffffffffffffffffffffffffffffffffffffffffffffffffff19161480611b3257507f5b5e139f000000000000000000000000000000000000000000000000000000007bffffffffffffffffffffffffffffffffffffffffffffffffffffffff1916827bffffffffffffffffffffffffffffffffffffffffffffffffffffffff1916145b80611b425750611b4182612488565b5b9050919050565b600080611b55836124f2565b9050600073ffffffffffffffffffffffffffffffffffffffff168173ffffffffffffffffffffffffffffffffffffffff1603611bc857826040517f7e273289000000000000000000000000000000000000000000000000000000008152600401611bbf919061306c565b60405180910390fd5b80915050919050565b60006005600083815260200190815260200160002060009054906101000a900473ffffffffffffffffffffffffffffffffffffffff169050919050565b600033905090565b611c23838383600161252f565b505050565b600080611c34846124f2565b9050600073ffffffffffffffffffffffffffffffffffffffff168373ffffffffffffffffffffffffffffffffffffffff1614611c7657611c758184866126f4565b5b600073ffffffffffffffffffffffffffffffffffffffff168173ffffffffffffffffffffffffffffffffffffffff1614611d0757611cb860008560008061252f565b6001600460008373ffffffffffffffffffffffffffffffffffffffff1673ffffffffffffffffffffffffffffffffffffffff168152602001908152602001600020600082825403925050819055505b600073ffffffffffffffffffffffffffffffffffffffff168573ffffffffffffffffffffffffffffffffffffffff1614611d8a576001600460008773ffffffffffffffffffffffffffffffffffffffff1673ffffffffffffffffffffffffffffffffffffffff168152602001908152602001600020600082825401925050819055505b846003600086815260200190815260200160002060006101000a81548173ffffffffffffffffffffffffffffffffffffffff021916908373ffffffffffffffffffffffffffffffffffffffff160217905550838573ffffffffffffffffffffffffffffffffffffffff168273ffffffffffffffffffffffffffffffffffffffff167fddf252ad1be2c89b69c2b068fc378daa952ba7f163c4a11628f55a4df523b3ef60405160405180910390a4809150509392505050565b611e4a611c0e565b73ffffffffffffffffffffffffffffffffffffffff16611e68610d6f565b73ffffffffffffffffffffffffffffffffffffffff1614611ec757611e8b611c0e565b6040517f118cdaa7000000000000000000000000000000000000000000000000000000008152600401611ebe9190612d52565b60405180910390fd5b565b60008060009054906101000a900473ffffffffffffffffffffffffffffffffffffffff169050816000806101000a81548173ffffffffffffffffffffffffffffffffffffffff021916908373ffffffffffffffffffffffffffffffffffffffff1602179055508173ffffffffffffffffffffffffffffffffffffffff168173ffffffffffffffffffffffffffffffffffffffff167f8be0079c531659141344cd1fd0a4f28419497f9722a3daafe3b4186f6b6457e060405160405180910390a35050565b600073ffffffffffffffffffffffffffffffffffffffff168273ffffffffffffffffffffffffffffffffffffffff1603611fff5760006040517f64a0ae92000000000000000000000000000000000000000000000000000000008152600401611ff69190612d52565b60405180910390fd5b600061200d83836000611c28565b9050600073ffffffffffffffffffffffffffffffffffffffff168173ffffffffffffffffffffffffffffffffffffffff16146120815760006040517f73c6ac6e0000000000000000000000000000000000000000000000000000000081526004016120789190612d52565b60405180910390fd5b505050565b806007600084815260200190815260200160002090816120a69190613a24565b507ff8e1a15aba9398e019f0b49df1a4fde98ee17ae345cb5f6b5e2c27f5033e8ce7826040516120d6919061306c565b60405180910390a15050565b600073ffffffffffffffffffffffffffffffffffffffff168273ffffffffffffffffffffffffffffffffffffffff160361215357816040517f5b08ba1800000000000000000000000000000000000000000000000000000000815260040161214a9190612d52565b60405180910390fd5b80600660008573ffffffffffffffffffffffffffffffffffffffff1673ffffffffffffffffffffffffffffffffffffffff16815260200190815260200160002060008473ffffffffffffffffffffffffffffffffffffffff1673ffffffffffffffffffffffffffffffffffffffff16815260200190815260200160002060006101000a81548160ff0219169083151502179055508173ffffffffffffffffffffffffffffffffffffffff168373ffffffffffffffffffffffffffffffffffffffff167f17307eab39ab6107e8899845ad3d59bd9653f200f220920489ca2b5937696c31836040516122449190612be1565b60405180910390a3505050565b60008373ffffffffffffffffffffffffffffffffffffffff163b1115612402578273ffffffffffffffffffffffffffffffffffffffff1663150b7a02612295611c0e565b8685856040518563ffffffff1660e01b81526004016122b79493929190613fa3565b6020604051808303816000875af19250505080156122f357506040513d601f19601f820116820180604052508101906122f09190614004565b60015b612377573d8060008114612323576040519150601f19603f3d011682016040523d82523d6000602084013e612328565b606091505b50600081510361236f57836040517f64a0ae920000000000000000000000000000000000000000000000000000000081526004016123669190612d52565b60405180910390fd5b805181602001fd5b63150b7a0260e01b7bffffffffffffffffffffffffffffffffffffffffffffffffffffffff1916817bffffffffffffffffffffffffffffffffffffffffffffffffffffffff19161461240057836040517f64a0ae920000000000000000000000000000000000000000000000000000000081526004016123f79190612d52565b60405180910390fd5b505b50505050565b606060405180602001604052806000815250905090565b606061242a82611b49565b506000612435612408565b905060008151116124555760405180602001604052806000815250612480565b8061245f846127b8565b604051602001612470929190613dfd565b6040516020818303038152906040525b915050919050565b60007f01ffc9a7000000000000000000000000000000000000000000000000000000007bffffffffffffffffffffffffffffffffffffffffffffffffffffffff1916827bffffffffffffffffffffffffffffffffffffffffffffffffffffffff1916149050919050565b60006003600083815260200190815260200160002060009054906101000a900473ffffffffffffffffffffffffffffffffffffffff169050919050565b80806125685750600073ffffffffffffffffffffffffffffffffffffffff168273ffffffffffffffffffffffffffffffffffffffff1614155b1561269c57600061257884611b49565b9050600073ffffffffffffffffffffffffffffffffffffffff168373ffffffffffffffffffffffffffffffffffffffff16141580156125e357508273ffffffffffffffffffffffffffffffffffffffff168173ffffffffffffffffffffffffffffffffffffffff1614155b80156125f657506125f48184611523565b155b1561263857826040517fa9fbf51f00000000000000000000000000000000000000000000000000000000815260040161262f9190612d52565b60405180910390fd5b811561269a57838573ffffffffffffffffffffffffffffffffffffffff168273ffffffffffffffffffffffffffffffffffffffff167f8c5be1e5ebec7d5bd14f71427d1e84f3dd0314c0f7b2291e5b200ac8c7c3b92560405160405180910390a45b505b836005600085815260200190815260200160002060006101000a81548173ffffffffffffffffffffffffffffffffffffffff021916908373ffffffffffffffffffffffffffffffffffffffff16021790555050505050565b6126ff838383612886565b6127b357600073ffffffffffffffffffffffffffffffffffffffff168373ffffffffffffffffffffffffffffffffffffffff160361277457806040517f7e27328900000000000000000000000000000000000000000000000000000000815260040161276b919061306c565b60405180910390fd5b81816040517f177e802f0000000000000000000000000000000000000000000000000000000081526004016127aa929190614031565b60405180910390fd5b505050565b6060600060016127c784612947565b01905060008167ffffffffffffffff8111156127e6576127e5612e36565b5b6040519080825280601f01601f1916602001820160405280156128185781602001600182028036833780820191505090505b509050600082602001820190505b60011561287b578080600190039150507f3031323334353637383961626364656600000000000000000000000000000000600a86061a8153600a858161286f5761286e61405a565b5b04945060008503612826575b819350505050919050565b60008073ffffffffffffffffffffffffffffffffffffffff168373ffffffffffffffffffffffffffffffffffffffff161415801561293e57508273ffffffffffffffffffffffffffffffffffffffff168473ffffffffffffffffffffffffffffffffffffffff1614806128ff57506128fe8484611523565b5b8061293d57508273ffffffffffffffffffffffffffffffffffffffff1661292583611bd1565b73ffffffffffffffffffffffffffffffffffffffff16145b5b90509392505050565b600080600090507a184f03e93ff9f4daa797ed6e38ed64bf6a1f01000000000000000083106129a5577a184f03e93ff9f4daa797ed6e38ed64bf6a1f010000000000000000838161299b5761299a61405a565b5b0492506040810190505b6d04ee2d6d415b85acef810000000083106129e2576d04ee2d6d415b85acef810000000083816129d8576129d761405a565b5b0492506020810190505b662386f26fc100008310612a1157662386f26fc100008381612a0757612a0661405a565b5b0492506010810190505b6305f5e1008310612a3a576305f5e1008381612a3057612a2f61405a565b5b0492506008810190505b6127108310612a5f576127108381612a5557612a5461405a565b5b0492506004810190505b60648310612a825760648381612a7857612a7761405a565b5b0492506002810190505b600a8310612a91576001810190505b80915050919050565b6040518060c001604052806060815260200160608152602001600081526020016000815260200160608152602001600081525090565b508054612adc906135f4565b6000825580601f10612aee5750612b0d565b601f016020900490600052602060002090810190612b0c9190612b10565b5b50565b5b80821115612b29576000816000905550600101612b11565b5090565b6000604051905090565b600080fd5b600080fd5b60007fffffffff0000000000000000000000000000000000000000000000000000000082169050919050565b612b7681612b41565b8114612b8157600080fd5b50565b600081359050612b9381612b6d565b92915050565b600060208284031215612baf57612bae612b37565b5b6000612bbd84828501612b84565b91505092915050565b60008115159050919050565b612bdb81612bc6565b82525050565b6000602082019050612bf66000830184612bd2565b92915050565b600081519050919050565b600082825260208201905092915050565b60005b83811015612c36578082015181840152602081019050612c1b565b60008484015250505050565b6000601f19601f8301169050919050565b6000612c5e82612bfc565b612c688185612c07565b9350612c78818560208601612c18565b612c8181612c42565b840191505092915050565b60006020820190508181036000830152612ca68184612c53565b905092915050565b6000819050919050565b612cc181612cae565b8114612ccc57600080fd5b50565b600081359050612cde81612cb8565b92915050565b600060208284031215612cfa57612cf9612b37565b5b6000612d0884828501612ccf565b91505092915050565b600073ffffffffffffffffffffffffffffffffffffffff82169050919050565b6000612d3c82612d11565b9050919050565b612d4c81612d31565b82525050565b6000602082019050612d676000830184612d43565b92915050565b612d7681612d31565b8114612d8157600080fd5b50565b600081359050612d9381612d6d565b92915050565b60008060408385031215612db057612daf612b37565b5b6000612dbe85828601612d84565b9250506020612dcf85828601612ccf565b9150509250929050565b600080600060608486031215612df257612df1612b37565b5b6000612e0086828701612d84565b9350506020612e1186828701612d84565b9250506040612e2286828701612ccf565b9150509250925092565b600080fd5b600080fd5b7f4e487b7100000000000000000000000000000000000000000000000000000000600052604160045260246000fd5b612e6e82612c42565b810181811067ffffffffffffffff82111715612e8d57612e8c612e36565b5b80604052505050565b6000612ea0612b2d565b9050612eac8282612e65565b919050565b600067ffffffffffffffff821115612ecc57612ecb612e36565b5b612ed582612c42565b9050602081019050919050565b82818337600083830152505050565b6000612f04612eff84612eb1565b612e96565b905082815260208101848484011115612f2057612f1f612e31565b5b612f2b848285612ee2565b509392505050565b600082601f830112612f4857612f47612e2c565b5b8135612f58848260208601612ef1565b91505092915050565b600080600080600060a08688031215612f7d57612f7c612b37565b5b600086013567ffffffffffffffff811115612f9b57612f9a612b3c565b5b612fa788828901612f33565b955050602086013567ffffffffffffffff811115612fc857612fc7612b3c565b5b612fd488828901612f33565b9450506040612fe588828901612ccf565b9350506060612ff688828901612ccf565b925050608086013567ffffffffffffffff81111561301757613016612b3c565b5b61302388828901612f33565b9150509295509295909350565b60006020828403121561304657613045612b37565b5b600061305484828501612d84565b91505092915050565b61306681612cae565b82525050565b6000602082019050613081600083018461305d565b92915050565b61309081612bc6565b811461309b57600080fd5b50565b6000813590506130ad81613087565b92915050565b600080604083850312156130ca576130c9612b37565b5b60006130d885828601612d84565b92505060206130e98582860161309e565b9150509250929050565b600067ffffffffffffffff82111561310e5761310d612e36565b5b61311782612c42565b9050602081019050919050565b6000613137613132846130f3565b612e96565b90508281526020810184848401111561315357613152612e31565b5b61315e848285612ee2565b509392505050565b600082601f83011261317b5761317a612e2c565b5b813561318b848260208601613124565b91505092915050565b600080600080608085870312156131ae576131ad612b37565b5b60006131bc87828801612d84565b94505060206131cd87828801612d84565b93505060406131de87828801612ccf565b925050606085013567ffffffffffffffff8111156131ff576131fe612b3c565b5b61320b87828801613166565b91505092959194509250565b600082825260208201905092915050565b600061323382612bfc565b61323d8185613217565b935061324d818560208601612c18565b61325681612c42565b840191505092915050565b61326a81612cae565b82525050565b600060c083016000830151848203600086015261328d8282613228565b915050602083015184820360208601526132a78282613228565b91505060408301516132bc6040860182613261565b5060608301516132cf6060860182613261565b50608083015184820360808601526132e78282613228565b91505060a08301516132fc60a0860182613261565b508091505092915050565b600060208201905081810360008301526133218184613270565b905092915050565b600081519050919050565b600082825260208201905092915050565b6000819050602082019050919050565b600060c08301600083015184820360008601526133728282613228565b9150506020830151848203602086015261338c8282613228565b91505060408301516133a16040860182613261565b5060608301516133b46060860182613261565b50608083015184820360808601526133cc8282613228565b91505060a08301516133e160a0860182613261565b508091505092915050565b60006133f88383613355565b905092915050565b6000602082019050919050565b600061341882613329565b6134228185613334565b93508360208202850161343485613345565b8060005b85811015613470578484038952815161345185826133ec565b945061345c83613400565b925060208a01995050600181019050613438565b50829750879550505050505092915050565b6000602082019050818103600083015261349c818461340d565b905092915050565b600080604083850312156134bb576134ba612b37565b5b60006134c985828601612d84565b92505060206134da85828601612d84565b9150509250929050565b60008060008060008060c0878903121561350157613500612b37565b5b600061350f89828a01612ccf565b965050602087013567ffffffffffffffff8111156135305761352f612b3c565b5b61353c89828a01612f33565b955050604087013567ffffffffffffffff81111561355d5761355c612b3c565b5b61356989828a01612f33565b945050606061357a89828a01612ccf565b935050608061358b89828a01612ccf565b92505060a087013567ffffffffffffffff8111156135ac576135ab612b3c565b5b6135b889828a01612f33565b9150509295509295509295565b7f4e487b7100000000000000000000000000000000000000000000000000000000600052602260045260246000fd5b6000600282049050600182168061360c57607f821691505b60208210810361361f5761361e6135c5565b5b50919050565b600060608201905061363a6000830186612d43565b613647602083018561305d565b6136546040830184612d43565b949350505050565b7f4e616d6520726571756972656400000000000000000000000000000000000000600082015250565b6000613692600d83612c07565b915061369d8261365c565b602082019050919050565b600060208201905081810360008301526136c181613685565b9050919050565b7f5072696365207265717569726564000000000000000000000000000000000000600082015250565b60006136fe600e83612c07565b9150613709826136c8565b602082019050919050565b6000602082019050818103600083015261372d816136f1565b9050919050565b7f4465736372697074696f6e207265717569726564000000000000000000000000600082015250565b600061376a601483612c07565b915061377582613734565b602082019050919050565b600060208201905081810360008301526137998161375d565b9050919050565b7f5175616e74697479207265717569726564000000000000000000000000000000600082015250565b60006137d6601183612c07565b91506137e1826137a0565b602082019050919050565b60006020820190508181036000830152613805816137c9565b9050919050565b7f49504653204c696e6b2072657175697265640000000000000000000000000000600082015250565b6000613842601283612c07565b915061384d8261380c565b602082019050919050565b6000602082019050818103600083015261387181613835565b9050919050565b60008190508160005260206000209050919050565b60006020601f8301049050919050565b600082821b905092915050565b6000600883026138da7fffffffffffffffffffffffffffffffffffffffffffffffffffffffffffffffff8261389d565b6138e4868361389d565b95508019841693508086168417925050509392505050565b6000819050919050565b600061392161391c61391784612cae565b6138fc565b612cae565b9050919050565b6000819050919050565b61393b83613906565b61394f61394782613928565b8484546138aa565b825550505050565b600090565b613964613957565b61396f818484613932565b505050565b5b818110156139935761398860008261395c565b600181019050613975565b5050565b601f8211156139d8576139a981613878565b6139b28461388d565b810160208510156139c1578190505b6139d56139cd8561388d565b830182613974565b50505b505050565b600082821c905092915050565b60006139fb600019846008026139dd565b1980831691505092915050565b6000613a1483836139ea565b9150826002028217905092915050565b613a2d82612bfc565b67ffffffffffffffff811115613a4657613a45612e36565b5b613a5082546135f4565b613a5b828285613997565b600060209050601f831160018114613a8e5760008415613a7c578287015190505b613a868582613a08565b865550613aee565b601f198416613a9c86613878565b60005b82811015613ac457848901518255600182019150602085019450602081019050613a9f565b86831015613ae15784890151613add601f8916826139ea565b8355505b6001600288020188555050505b505050505050565b7f496e76616c69642070726f647563742069640000000000000000000000000000600082015250565b6000613b2c601283612c07565b9150613b3782613af6565b602082019050919050565b60006020820190508181036000830152613b5b81613b1f565b9050919050565b7f4e487b7100000000000000000000000000000000000000000000000000000000600052603260045260246000fd5b7f50726f64756374206f7574206f662073746f636b000000000000000000000000600082015250565b6000613bc7601483612c07565b9150613bd282613b91565b602082019050919050565b60006020820190508181036000830152613bf681613bba565b9050919050565b7f496e73756666696369656e742066756e64730000000000000000000000000000600082015250565b6000613c33601283612c07565b9150613c3e82613bfd565b602082019050919050565b60006020820190508181036000830152613c6281613c26565b9050919050565b7f4e487b7100000000000000000000000000000000000000000000000000000000600052601160045260246000fd5b6000613ca382612cae565b9150613cae83612cae565b9250828201905080821115613cc657613cc5613c69565b5b92915050565b6000613cd782612cae565b9150613ce283612cae565b9250828203905081811115613cfa57613cf9613c69565b5b92915050565b600081905092915050565b60008154613d18816135f4565b613d228186613d00565b94506001821660008114613d3d5760018114613d5257613d85565b60ff1983168652811515820286019350613d85565b613d5b85613878565b60005b83811015613d7d57815481890152600182019150602081019050613d5e565b838801955050505b50505092915050565b6000613d9a8287613d0b565b9150613da68286613d0b565b9150613db28285613d0b565b9150613dbe8284613d0b565b915081905095945050505050565b6000613dd782612bfc565b613de18185613d00565b9350613df1818560208601612c18565b80840191505092915050565b6000613e098285613dcc565b9150613e158284613dcc565b91508190509392505050565b600081549050613e30816135f4565b9050919050565b818103613e45575050613f1d565b613e4e82613e21565b67ffffffffffffffff811115613e6757613e66612e36565b5b613e7182546135f4565b613e7c828285613997565b6000601f831160018114613eab5760008415613e99578287015490505b613ea38582613a08565b865550613f16565b601f198416613eb987613878565b9650613ec486613878565b60005b82811015613eec57848901548255600182019150600185019450602081019050613ec7565b86831015613f095784890154613f05601f8916826139ea565b8355505b6001600288020188555050505b5050505050505b565b7f4e487b7100000000000000000000000000000000000000000000000000000000600052603160045260246000fd5b600081519050919050565b600082825260208201905092915050565b6000613f7582613f4e565b613f7f8185613f59565b9350613f8f818560208601612c18565b613f9881612c42565b840191505092915050565b6000608082019050613fb86000830187612d43565b613fc56020830186612d43565b613fd2604083018561305d565b8181036060830152613fe48184613f6a565b905095945050505050565b600081519050613ffe81612b6d565b92915050565b60006020828403121561401a57614019612b37565b5b600061402884828501613fef565b91505092915050565b60006040820190506140466000830185612d43565b614053602083018461305d565b9392505050565b7f4e487b7100000000000000000000000000000000000000000000000000000000600052601260045260246000fdfea26469706673582212204ebafa83bfee51d699b3f1a6fa6fec168a9a6f745e66740270a54b14cf3a704f64736f6c63430008140033",
  "linkReferences": {},
  "deployedLinkReferences": {}
}